:020000040800F2
:10000000180700205502000859240008DD1F0008C9
:1000100055240008850E000809270008000000008C
:100020000000000000000000000000003126000871
:10003000890E0008000000008924000865260008D9
:100040006F0200086F0200086F0200086F020008CC
:100050006F0200086F0200086F0200086F020008BC
:100060006F0200086F0200086F0200086F020008AC
:100070006F0200086F0200086F0200086F0200089C
:100080006F0200086F0200086F0200080000000005
:100090000000000000000000000000006F020008E7
:1000A0006F0200086F0200086F0200086F0200086C
:1000B0006F0200086F0200086F0200086F0200085C
:1000C0006F0200086F0200086F0200086F0200084C
:1000D0006F0200086F0200086F02000800000000B5
:1000E0006F0200086F0200086F02000800000000A5
:1000F0000000000000000000000000006F02000887
:10010000000000006F0200086F0200086F02000884
:1001100000000000000000000000000000000000DF
:100120006F0200086F0200086F0200086F020008EB
:100130006F02000800000000000000000000000046
:100140000000000000000000000000006F02000836
:100150006F0200086F0200086F0200086F020008BB
:100160006F0200086F02000800000000000000009D
:10017000000000000000000000000000000000007F
:10018000000000006F0200080000000000000000F6
:100190006F02000800F002F800F04CF80AA090E8A6
:1001A000000C82448344AAF10107DA4501D100F032
:1001B00041F8AFF2090EBAE80F0013F0010F18BFB3
:1001C000FB1A43F0010318477C3900009C390000FA
:1001D000103A24BF78C878C1FAD8520724BF30C873
:1001E00030C144BF04680C60704700000023002445
:1001F00000250026103A28BF78C1FBD8520728BF37
:1002000030C148BF0B607047662903F047846429FA
:1002100000F0CC80002070471FB503F032FC00F0E6
:1002200037FC04000020002103F09EFBE0601FBDAE
:1002300010B510BD00F02CFD1146FFF7EDFF02F0E8
:100240008FFA00F04AFD03B4FFF7F2FF03BC00F0A1
:100250008DFD00000948804709480047FEE7FEE79A
:10026000FEE7FEE7FEE7FEE7FEE7FEE7FEE7FEE766
:1002700004480549054A064B70470000F52600086A
:10028000950100081801002018070020180300201D
:100290001803002053EA020C00F069802DE9F04BAE
:1002A0004FF00006002B1FBFB3FA83F503FA05F4E5
:1002B00024FA05F65E4012BF1643B2FA82F502FA3E
:1002C00005F4C5F120051EBF22FA05FC44EA0C0422
:1002D000203556EA044C4FEA144418BF641C4FF012
:1002E00000084FF00009904271EB030C39D300294C
:1002F00019BFB1FA81F701FA07F6B0FA80F700FAF0
:1003000007F6C7F120071EBF20FA07FC46EA0C06D5
:100310002037B6FBF4FCA7EB0507103F07F01F0BD7
:10032000CBF120062CFA06F60CFA0BFB44BFB346C1
:100330000026202FA4BF5E464FF0000B5BEA060CA0
:1003400008BF4FF0010B19EB0B0948EB0608ABFB9C
:10035000027C06FB02CC0BFB03CCC01B71EB0C0137
:10036000C1E70B46024641464846BDE8F08B13B54F
:10037000084318BF4FF0FF300146AFF30080BDE8DF
:100380001C4070470FB41CB5074B06AA7B44694656
:100390000090059800F063FB0020694600F072FBB6
:1003A0001CBC5DF814FB0000F50600002DE9F041CF
:1003B0000646002410687529314616A510D0AFF303
:1003C0000080002802DA404213A507E031688A075E
:1003D00001D512A502E0490704D511A5012401E0C9
:1003E000AFF3008000210A2206F1240709E0B0FBE8
:1003F000F2FCB0FBF2F302FB1C00303078541846DC
:10040000491C0028F3D123462A463046BDE8F04176
:1004100000F0B9B8000000002D0000002B00000023
:10042000200000002DE9F0474FF0000A89460446FD
:10043000C0F820A02046E1688847002876D025280B
:1004400006D0D4E901219047206A401C2062F1E7E0
:10045000E168204600258847C4F81CA0064600270E
:10046000C4F818A02A2E09D0304603F075FA38B324
:1004700004EB8708303EC8F8186019E059F8041BEF
:10048000204604EB87029161E1688847012F064608
:1004900018D1E069002820DA25F020051DE0D8F801
:1004A000180000EB800006EB40003038C8F8180058
:1004B0002046E1688847064603F04EFA0028EED150
:1004C000012F0AD02E2E08D12046E16888477F1CD4
:1004D0000646022F45F02005C4DBA069002803DA98
:1004E000404245F00105A061E80701D025F0100564
:1004F000B6B1A6F14100192802D8203645F40065AE
:100500004A463146204625604D46FFF77DFE58B1EC
:10051000012806D0ED1D25F0070000F1080989E744
:1005200004E005F1040985E730468AE7206ABDE862
:10053000F0874FF0000200B51346944696462039E6
:1005400022BFA0E80C50A0E80C50B1F12001BFF48C
:10055000F7AF090728BFA0E80C5048BF0CC05DF8F2
:1005600004EB890028BF40F8042B08BF704748BF40
:1005700020F8022B11F0804F18BF00F8012B7047B4
:100580007047704770472DE9F0470D4699469246EF
:10059000044600F124080168880604D5E06921F0CA
:1005A0001001216000E00120A84201DD471B00E0AE
:1005B0000027A1697A1902EB0900081AA0612078C6
:1005C000C00602D42046AFF30080002608E0D4E93C
:1005D00001211AF806009047206A401C761C206210
:1005E0004E45F4DB2078C0060AD52046AFF30080E4
:1005F00006E0D4E9012130209047206A401C2062A7
:10060000381EA7F10107F4DC07E0D4E9012118F84E
:1006100005009047206A401C2062281EA5F10105B4
:10062000F3DC2046AFF300802078000602D50220DC
:10063000BDE8F0870120FBE72DE9FF4F0C461E4681
:100640004FF0FF378BB0D2E90001DDF860800A90EF
:100650008A46C1F30A5505B93D46002108464FF0C8
:100660000000BAF1000F00F4400005DA00EB800052
:100670004FF4400101EA50004FEA9059B9F1010FDF
:1006800000DDB9460A9850EA4A000ED044F61050F0
:10069000A5F2FF3545432F14B8F1000F1ED0754267
:1006A000291E1EDDC9F100021CE0B8F1010F4FF058
:1006B000000001D0302103E0F24305E02154401C4A
:1006C000B042FBDB30460022002121540B99C1F8D7
:1006D0000880C1E900200FB0BDE8F08FBD1B6D1C84
:1006E000DEE74A4600DA694206A800F05BFA06AB8C
:1006F00093E8070003AB83E8070050460A9902F02D
:100700004BFD8DE80700A0F500501F3800900398BE
:10071000002D0ADD42F21F014A460844002303A9C6
:100720000390684602F0B4FF09E0A0F500504A4685
:100730001F38002303A90390684602F0BEFF8DE82E
:1007400007000004000C03D04FF0FF30410800E028
:100750001046B8F1000F03D00022009215461EE0AB
:10076000751E05D400F098F9303262556D1EF9D52A
:10077000B3460122084302D000227F1C04E0207807
:10078000302801D100227F1E002A099784D01DE065
:10079000112D07DA00F080F9303262556D1C50EAF5
:1007A0000102F5D1084302D00098C8B10EE0002143
:1007B000681E05E0235C625C63542254401E491CA1
:1007C0008142F7DBAB46A81B401E0990002004F8CD
:1007D0000B000B98099AC0F80880C0E9002B7AE753
:1007E00011264FF0000857E72DE9F04F88460446E0
:1007F000D21D22F0070191B0D1E90001CDE90A0133
:1008000003F092F802460B98C00F01D02D2007E0AC
:100810002068810701D52B2002E0202101EAC000D9
:10082000032A099001D0072A05DB034641462046EA
:1008300000F078F90BE12078800601D5E06900E04E
:100840000620B8F1650F814606D0B8F1660F18D0C2
:10085000B8F1670F70D131E00020B9F1110F0090AD
:1008600001DB112301E009F101030AAA01A90CA887
:10087000FFF7E2FEDDE90C70002609F10105834671
:1008800047E001204B4600904FF000470AAA01A91B
:100890000CA8FFF7D1FEDDE90DB00C995D460026EE
:1008A00010B909F101000D18B9EB050003D4C0F12E
:1008B000FF3609F10105A5EB09002BE0B9F1010FA5
:1008C00001DA4FF001090020B9F1110F00904846FC
:1008D00001DD112300E003460AAA01A90CA8FFF7D5
:1008E000ABFEDDE90C704D460026834620780007FC
:1008F0000AD4AB4500DA5D4601A8012D04DD41199B
:1009000011F8011C302907D04F4502DA17F1040F06
:1009100004DA012082460FE06D1EEEE7002F02DCB4
:10092000ED1B3E4403E0781CA84200DD7D1CB81B93
:1009300000F1010A4FF000472078000703D4AA45D0
:1009400001DB4FF0FF3A0021B7F1004F0DF14308F2
:100950008DF8431024D002202B23002F01DA7F4290
:100960002D230A21021EA0F1010000DC5FB197FBDC
:10097000F1FC97FBF1F201FB1C7C17460CF1300CEB
:1009800008F801CDEEE7A8F1010003702188090500
:1009900001D5452100E06521A0F1010800F8011C06
:1009A00009980FA9A1EB0807FF1D00B1012041190B
:1009B00001EBEA70A1693844081A401EA061207852
:1009C000C00602D42046AFF30080099828B1D4E9CC
:1009D00001219047206A401C20622078C00622D561
:1009E0002046AFF300801EE0002E04DBB34502DD9D
:1009F00001A8805D00E03020D4E901219047206A01
:100A0000401C2062761CAAF101005FEA000A0AD1AC
:100A100000F03EF8C0680168405CD4E901219047CD
:100A2000206A401C2062281EA5F10105DCDC07E0DD
:100A3000D4E9012118F8010B9047206A401C20627C
:100A4000381EA7F10107F3DC2046AFF30080032036
:100A500011B041E601694A1C02610878704700B58F
:100A60008FB0CDE901310021059105497944CDE9E7
:100A7000031011466846FFF7D5FC0FB000BD00001B
:100A8000E5FFFFFF0A6802F8010B0A6070470000EB
:100A9000004870473000002030B5B0F10A0271F113
:100AA00000034FEA900E4EEA817EB0EB0E0061EB40
:100AB00091014FEA101E4EEA017E10EB0E0041EB51
:100AC00011114FEA102E4EEA016E10EB0E0041EBB1
:100AD00011214FEA104E4EEA014E10EB0E0041EB91
:100AE0001141401841F100014FEAD00040EA417045
:100AF0004FEAD1014FEA810444EA907410EB80057B
:100B000044EB01046D1944EB0404521BA3414FF064
:100B1000000348BF0A3200D530BD401C41F100013E
:100B200030BD00002DE9F0411F4604460326016850
:100B3000072A01F4006004DB08B116A505E016A53C
:100B400003E008B115A500E015A521F01000206014
:100B5000A069C01EA0610FB1401EA0612046AFF386
:100B600000804FB1D4E9012138469047206A401CEB
:100B70002062C01C206206E0206AFAE7D4E9012165
:100B800015F8010B9047761EF8D22046AFF300808F
:100B9000BDE8F0814E414E006E616E00494E460048
:100BA000696E66002DE9F047814616468AB03548E1
:100BB00078440DC88DE80D0032487844801C03ACA1
:100BC0000DC884E80D0041F69B300844372190FBA6
:100BD000F1F290FBF1F5A5F1800501FB12041B3C3D
:100BE00002D56442012000E00020DFF898A0804692
:100BF0000027FA44AAF1BE0A0EE0E0070AD0324606
:100C0000684607EB470101230AEB810102F055FD1D
:100C10008DE8070064107F1C002CEED1194F7F4433
:100C2000AE3F19E0E80715D007EB04100DF1180AE4
:100C300090E80E008AE80E00C068F04201D19819D1
:100C400008903246012306A903A802F036FD03AB43
:100C500083E807006D10641C002DE3D14FF0010301
:100C600032466946B8F1000F03A802D002F010FD29
:100C700001E002F022FDC9E90001C9F808200AB02C
:100C8000BDE8F087682F0000004870471000002082
:100C90007546FFF7F9FFAE4605006946534620F05A
:100CA0000700854618B020B5FFF7E2FABDE82040FE
:100CB0004FF000064FF000074FF000084FF0000B18
:100CC000AC46ACE8C009ACE8C009ACE8C009ACE887
:100CD000C00921F007018D46704710B50446AFF3F7
:100CE00000802046BDE81040FFF7ADBA00000000CC
:100CF00030B44FF0013C50F8042B51F8043BCCFACF
:100D000052F4D51A20D1FCB950F8042B51F8043B09
:100D1000CCFA52F4D51A17D1B4B950F8042B51F8C3
:100D2000043BCCFA52F4D51A0ED16CB950F8042B0E
:100D300051F8043BCCFA52F4D51A05D1002CDAD084
:100D400030BC4FF00000704729BAB1FA81F111F0C0
:100D50001801D1F120008440F2D1CA40CB4012F0FA
:100D6000FF0213F0FF0330BCD01A7047014918206E
:100D7000ABBEFEE7260002007047000010B542F24D
:100D80000432C4F20102116821F440311160D2F83A
:100D900000C090E80A4043EA0C03C46813604A6844
:100DA00022F480724A6002694B6843EA02224A6078
:100DB0004A6822F040724A604A6842EA0E024A607B
:100DC0008A6822F400628A608A6822438A60826AA2
:100DD0008B68012423F070638B608B68C0F600740D
:100DE000A24202D123F0405208E01A438A608A6886
:100DF00022F040528A60C26A8B681A438A608A680D
:100E000022F002028A608A68037E90F8204042EA5B
:100E100043028A604A6884B142F400624A604A68C8
:100E20004EF2000322F460424A60426ACFF6FF733A
:100E30004C6803EB4232224301E022F400624A6034
:100E4000CA6A40F2000C22F47002CA62C3694269A5
:100E5000CFF6F07CCC6A0CEB03532343CB628B6858
:100E600023F400738B6090F830008B6843EA4020D5
:100E70008860886820F480608860886840EA822002
:100E8000886010BDFEE7000070470000EFF310809F
:100E900072B600BFFEE7000070B581B0002200927C
:100EA00090F83C20012A01D1022156E00E6801226F
:100EB0001FFA86FC80F83C204FEA4C0212FA86F3B7
:100EC00002680A2E32BF10321E3B0C324FF0070E62
:100ED00015680EFA03F4A54315608D68146805FAC9
:100EE00003F3234313604968062906D8026801EB1F
:100EF0008101053902F134030AE00C2901EB81017B
:100F0000026887BF413902F12C03233902F1300313
:100F10001F221C688A4024EA02021A601A680CFA2E
:100F200001F1114342F2043E1960C4F2010E01685E
:100F3000122EAEF5417208BF914205D1DEF80030A5
:100F400043F48003CEF8003026F00103102B08BFD5
:100F5000914205D0002180F83C10084601B070BDD8
:100F6000DEF80010102E41F40001CEF80010F1D18F
:100F700040F20001C2F2000109684DF68362C4F23A
:100F80001B32A1FB0212910C01EB8101490000BF51
:100F9000009100990029DDD000990139F8E700009F
:100FA0000068C06C70470000B0B510B30446006C18
:100FB00030B9204600F020F80020606484F83C003E
:100FC000206C0125C0060FD4206C41F20211884329
:100FD000023020642046FFF7D1FE00206064206CC0
:100FE00065F3010000252064002084F83C002846B9
:100FF000B0BD0120B0BD000080B586B042F2000156
:101000000068C4F20101002288420592CDE9032262
:101010000292019201D006B080BD43F630000092EA
:10102000C4F20200436943F480734361436903F4EB
:1010300080730093009B0092036843F001030360F8
:10104000006800F00100009000980120019003204A
:10105000CDE9020201F5604001A900F0E5F806B013
:1010600080BD0000F0B581B0044600680D4682687E
:10107000520544BF80685FEAC0502BD400F0AEF93F
:1010800021680A68920715D406466F1C08E000BF65
:1010900020680068800727D521680868800709D480
:1010A000002FF9D0002DF3D000F098F9801BA84252
:1010B000EED8F1E76FF012000860206C40F4007089
:1010C0002064886810F0405F01D1207EB0B100201C
:1010D00001B0F0BD206C40F020002064002084F8B6
:1010E0003C00012001B0F0BD206C40F00400206401
:1010F000002084F83C00032001B0F0BDC86A10F461
:10110000700F02D088684005E1D4206C20F4807014
:101110002064206CC004DAD4206C40F0010020640C
:10112000D5E7000081B00021009190F83C10012922
:1011300002BF022001B070470122016880F83C2004
:101140008A68D20718D18A684DF6836342F001029B
:101150008A6040F20002C2F200021268C4F21B333D
:10116000A2FB03239A0C02EB420200BF0092009AFA
:1011700012B1009A013AF9E78B68026CDB0707D1DC
:1011800042F010010164416C41F00101416434E01E
:1011900040F201739A4302F5807202644A68520574
:1011A00004D5026C012363F30D320264026C4FF02C
:1011B000000CD2044FF0000244BF426C22F0060241
:1011C00042F20003426480F83CC06FF02200C4F297
:1011D00001030860D3F80403C00606D099420CD17D
:1011E000986810F0405F08D103E0886810F0405F15
:1011F00003D1886840F080408860002001B07047CB
:10120000B0B5044600F0EAF8054640F20400C2F228
:1012100000000078611C18BF044400BF00F0DEF835
:10122000401BA042FAD3B0BD2DE9F04F83B000F1CE
:101230003E4202F1FF724FEAB22241F200070192F0
:10124000C4F2020707224FF0010E00254FF0000AFA
:101250004FF00008B84208BF042200920AE000BF25
:1012600008F101080AF1040AB8F1100F05F10205AE
:1012700000F0A4800C680EFA08FB14EA0B09EFD00A
:101280004C6804F0030CACF1010EBEF1010F11D853
:101290000322876802FA05F6CA68B743AA403A43B0
:1012A00082604268C4F3001722EA0B0207FA08F7CB
:1012B0003A434260BCF1030F1CD0C26803238E681E
:1012C00003FA05F7BA4306FA05F73A43BCF1020FF1
:1012D000C2600FD16FF0030202EA580202440AF022
:1012E0001C060F23176A03FA06F40B69A743B340E1
:1012F0003B431362026803234F68AB409A4307F0F5
:101300000303AB401A4317F4403F4FF0010E026055
:10131000A6D0002243F644030292C4F202031A68E4
:1013200043F6004442F480421A601A68C4F2010491
:1013300002F480420292029A28F003024FF6084B10
:101340002244CFF6FF7B52F80B300AF00C070F2631
:10135000BE4023EA060C019B009E042B38BF1E46AC
:1013600006FA07F747EA0C0342F80B30A2684B680D
:1013700042EA090743F60C4CDE0258BF22EA09078D
:10138000A760C4F2010CDCF800209E0242EA0907C3
:1013900058BF22EA0907CCF8007062689E0342EA4F
:1013A000090758BF22EA090767602268DB0342EA9F
:1013B000090358BF22EA0903236051E703B0BDE8DF
:1013C000F08F00000069084018BF0120704700003E
:1013D000002A08BF090481617047000040F2141020
:1013E000C2F200000068704740F2040040F214119D
:1013F000C2F20000C2F2000100780A6810440860DE
:101400007047000080B543F60040C4F20200016856
:1014100041F400710160016841F48061016001687C
:1014200041F480710160032000F05CF80F2000F0AF
:1014300005F800F02BF8002080BD0000B0B540F2A8
:101440000402C2F2000240F200011278C2F200016E
:101450004FF47A730968B3FBF2F20446B1FBF2F180
:10146000084600F0B7FD0F2C4FF001050CD858B915
:101470004FF0FF3021460022002500F023F840F213
:101480000800C2F2000004602846B0BD82B000200F
:1014900043F640010190C4F202014A6842F48042DE
:1014A0004A604A6802F480420192019A00900868FA
:1014B00040F080500860086800F08050009000986C
:1014C00002B0704770B514460D46064601F01EF98D
:1014D0002946224600F0C2FF0146304601F01EF9BF
:1014E00070BD000080B501F02BF980BD2DE9F04101
:1014F000002800F08B8043F60808C4F20208044676
:10150000D8F8F8030D4600F00700884207D288F8A3
:10151000F853D8F8F80300F00700A84276D1206805
:10152000810717D5410705D5D8F8001041F4E051DF
:10153000C8F80010010705D5D8F8001041F4604143
:10154000C8F80010D8F80010A26821F0F00111438B
:10155000C8F80010C0073FD1D8F8F80300F0070022
:10156000A84207D988F8F853D8F8F80300F0070024
:10157000A8424BD12068410707D5D8F80010E2688F
:1015800021F4E0511143C8F80010000708D5D8F83D
:101590000000216920F4604040EAC100C8F8000062
:1015A00000F054F8D8F8001043F63432C1F30311B8
:1015B000C0F60002515C40F2000220FA01F140F254
:1015C0000800C2F200000068C2F200021160FFF7DA
:1015D00035FF0020BDE8F0816068811E022907D236
:1015E00058F8081C89015CBF0120BDE8F08110E0BB
:1015F000012807D158F8081C89035CBF0120BDE809
:10160000F08106E058F8081C890702D40120BDE8E3
:10161000F081D8F8001021F003010843C8F8000059
:10162000FFF7DCFE064641F2883700BFD8F800001D
:10163000616800F00C00B0EB810F8DD0FFF7CEFE9B
:10164000801BB842F2D90320BDE8F08110B543F603
:101650000404C4F20204606800F00C0008280AD0F8
:10166000042819BF42F20040C0F2F40047F64000DF
:10167000C0F27D1010BD206821682368490247F63A
:101680004001C0F27D1100F03F02C3F388105CBF3F
:1016900042F20041C0F2F401A1FB00010023FEF779
:1016A000F9FD21680222C1F3014102EB4101B0FBC7
:1016B000F1F010BD2DE9F04182B0002800F0A280C9
:1016C0000446007843F60006C007C4F2020643D081
:1016D000B06800F00C00042805D1306880033BD5C9
:1016E0006068C8BB8EE0B06800F00C00082802D12A
:1016F00070684002F1D46568B5F5A02F0AD0B5F541
:10170000803F0BD0306820F480303060306820F4A7
:10171000802006E0306840F480203060306840F47B
:1017200080303060FFF75AFE002D054611D000BF13
:101730003068800310D4FFF751FE401B6428F7D9AE
:1017400022E100BFFFF74AFE401B64284FF0030070
:1017500055D830688003F5D4207880071AD5B06852
:1017600010F00C0F09D0B06800F00C00082840F011
:101770008A807068400200F186803068800702D558
:10178000E06801283ED13068216920F0F80040EA85
:10179000C10030602078000738D4207840074CD44E
:1017A000A5695DB3B06800F00C00082840F09E8089
:1017B000012D27D07068E16900F480028A4221D1AE
:1017C000216A00F03F028A421CD147F6C071626A6A
:1017D0000140B1EB821F15D1A26A0023CFF6FF733F
:1017E00003EBC23200F440316FF30F02914209D192
:1017F000E16A00F07060B0EB016F03D1002002B02D
:10180000BDE8F081012002B0BDE8F08160690028E8
:1018100040F20000C4F2472057D00121C0F8801EDA
:10182000FFF7DCFD054600BF706F8007B5D4FFF7FA
:10183000D5FD401B0228F7D9A6E0306C10F0805887
:101840000AD100200190306C40F080503064306C40
:1018500000F080500190019847F20007C4F20007A1
:101860003868C00524D4386840F480703860FFF7C9
:10187000B5FD05463868C0051AD4FFF7AFFD401B1B
:101880000228F7D980E0E068002851D00020C4F297
:10189000472001210160FFF7A1FD05463068800760
:1018A0003FF571AFFFF79AFD401B0228F6D96BE0B8
:1018B000A568052D50D0012D52D0306F20F00100C9
:1018C0003067306F20F004004DE00021C0F8801E2A
:1018D000FFF784FD054600BF706F80077FF55DAFA1
:1018E000FFF77CFD401B0228F6D94DE00027C4F22B
:1018F000472700203866FFF771FD022D05460BD102
:101900003068800158D5FFF769FD401B02284FF071
:101910000300F5D973E700BF306880017FF56EAF33
:10192000FFF75CFD401B02284FF00300F4D966E787
:101930000020C4F2472000210160FFF74FFD05465B
:10194000306880077FF526AFFFF748FD401B02286F
:101950004FF00300F4D952E7306F40F004003067D5
:10196000306F40F001003067FFF738FD002D05466D
:1019700041F2883714D000BF306F800713D4FFF7CF
:101980002DFD401BB842F7D9032002B0BDE8F0811D
:10199000FFF724FD401BB8424FF003003FF62FAF86
:1019A000306F8007F4D4B8F1000F7FF4F9AE306CDB
:1019B00020F080503064F3E604F11C052FCD08437D
:1019C0000021CFF6FF7140EA821001EBC3316FF3C3
:1019D0000F0140EA05600843706001203866FFF798
:1019E000FDFC0446306880013FF508AFFFF7F6FCC8
:1019F000001B02284FF00300F4D900E770B538B19E
:101A00000446406A30B10020206104F1140007E070
:101A1000012070BD6068B0F5827F03D004F11C0026
:101A2000002101600026A66294F8510020B92046EA
:101A300084F8506000F03CF8022084F8510094E8EB
:101A40000F0001F48271056802F4044225F040059C
:101A50000560114403F400622369114403F002029B
:101A60006369114403F00102A369E569114403F4B9
:101A70000072114405F03802256A114405F0800215
:101A8000A56A114305F4005211430160626A042102
:101A900001EA134102F0100211444160C16921F4CE
:101AA0000061C1610120666584F85100304670BD57
:101AB00080B586B043F200010068C4F20101002243
:101AC00088420592CDE903220292019201D006B02C
:101AD00080BD43F630000092C4F20200436943F433
:101AE00080534361436903F480530093009B009249
:101AF000036843F001030360006800F001000090F8
:101B00000098E02001900220CDE902020320049019
:101B10000520059001F5504001A9FFF785FB06B0AF
:101B200080BD00002DE9F04381B0044640681D46A9
:101B30001746B0F5827F0E4602D1A06800285AD021
:101B400094F85000012803D1022001B0BDE8F083D1
:101B50004FF0010984F85090FFF740FC94F85110C1
:101B6000012946D18046002E4FF0010018BF002FFA
:101B700077D0042084F8510000206065A663A78711
:101B8000E7872063A086E086A1682064B1F5004F56
:101B9000606408D12068016821F04001016001689B
:101BA00021F48041016020680168490603D401687E
:101BB00041F040010160E168E08F49B3002843D063
:101BC0006E1C09E0C068A16B21F8020BA163E08FD5
:101BD0000138E087E08FB8B320688168C907F1D188
:101BE000FFF7FCFB002EF5D0A0EB0800A842F1D3D4
:101BF00028E0022035E0042084F8510020463146D8
:101C000032463B46009500F0F3F801B0BDE8F083A2
:101C1000D0B16E1C0AE0007BA16B0870A06B013094
:101C2000A063E08F0138E087E08F68B120688168A9
:101C3000C907F0D1FFF7D2FB002EF5D0A0EB0800CA
:101C4000A842F1D303200CE020462946424600F08A
:101C50001DFC00281CBF20206065606D002818BF97
:101C60000120002184F8519084F8501001B0BDE8A3
:101C7000F08300002DE9F04381B0044690F8500055
:101C8000012803D1022001B0BDE8F0834FF0010923
:101C90001D4616460F4684F85090FFF79FFB94F8B8
:101CA000511001295DD18046002F4FF0010018BF6F
:101CB000002E00F09580032084F85100002060651C
:101CC0002763A686E686A063A087E087A168C4E9AB
:101CD0001000B1F5004F08D12068016821F04001E3
:101CE0000160016841F48041016020680168490693
:101CF00003D4016841F0400101606168731EE2682D
:101D0000B1FA81F1B3FA83F349095B09B2F5006FC7
:101D100041EA030127D139B1216B0988C160B81CA0
:101D20002063E08E0138E086E08E002841D06E1CF2
:101D30000AE000BF216B31F8022BC2602163E08E04
:101D40000138E086E08EA0B3206881688907F1D46D
:101D5000FFF744FB002EF5D0A0EB0800A842F1D31A
:101D600025E002203CE039B139780173206B013065
:101D70002063E08E0138E086E08ED0B16E1C0AE070
:101D8000216B09780173206B01302063E08E0138EC
:101D9000E086E08E68B1206881688907F0D4FFF79B
:101DA0001DFB002EF5D0A0EB0800A842F1D30320C4
:101DB00016E020462946424600F0A0FB00281CBF42
:101DC00020206065A06838B9002000902068C168B4
:101DD0000091806800900098606D002818BF012075
:101DE000002184F8519084F8501001B0BDE8F083D0
:101DF0002DE9F04381B0044690F85000012803D14A
:101E0000022001B0BDE8F08301201E4615460F46B2
:101E100084F85000FFF7E2FA94F851108146012946
:101E20000CD06068B0F5827F76D104294FF00200B3
:101E300040F0C680A168002940F0C280002F4FF01A
:101E4000010018BF002D00F0BB80002E00F0B8800C
:101E500094F85100002104281CBF052084F851008B
:101E60006165A563E687A6872763E6862068A68660
:101E7000216461640168490603D4016841F04001AE
:101E800001606168731EE268B1FA81F1B3FA83F30D
:101E9000DDF8208049095B09B2F5006F41EA0301D2
:101EA0003CD139B1216B0988C160B81C2063E08E38
:101EB0000138E086012608F1010500BFE08E10B967
:101EC000E08F002866D02068816889070CD5E18EF4
:101ED000012E09D141B1216B002631F8022BC260DD
:101EE0002163E18E0139E1868168C9070AD0E18F5B
:101EF00041B1C068A16B012621F8020BA163E08FFC
:101F00000138E087FFF76AFA002DD7D0A0EB09006F
:101F10004045D3D3032053E0022051E039B1397852
:101F20000173206B01302063E08E0138E0860126CA
:101F300008F10105E08E08B9E08F58B32068816888
:101F400089070DD5E18E012E0AD149B1216B0026FA
:101F500009780173206B01302063E08E0138E08640
:101F600020688168C9070BD0E18F49B1C068A16BB7
:101F700001260870A06B0130A063E08F0138E08774
:101F8000FFF72CFA002DD5D0A0EB09004045D1D3A6
:101F9000032015E0204641464A4600F0AFFA18B14A
:101FA0002020606501200BE0A06800284FF00000B1
:101FB00006D100902168CA68009289680091009952
:101FC000012184F85110002184F8501001B0BDE8BF
:101FD000F083000080B500F02DFB80BDFEE700001F
:101FE00080B5012000F004F8052000F073F880BDF2
:101FF00010B504460020C4F202004FF40071002224
:10200000FFF7E6F9200900F005F804F00F0000F0F2
:1020100001F810BDB0B540F200440546C4F2020418
:10202000A4F5806005F008024FF48071FFF7D0F945
:1020300005F0040220464FF48061FFF7C9F905F06E
:10204000020220461021FFF7C3F905F001022046E5
:102050002021FFF7BDF904F580642046802101228C
:10206000FFF7B6F9322000F039F82046802100222F
:10207000FFF7AEF9322000F031F8B0BD80B540F284
:102080007302C2F20002012988BF0021117007A269
:10209000515C40F27202C2F200021070084440F03B
:1020A0008000C0B2FFF7A4FF80BD00BF0040145401
:1020B00010B504460020C4F202004FF40071012262
:1020C000FFF786F92009FFF7A5FF04F00F00FFF7DF
:1020D000A1FF10BD80B5FFF793F880BD2DE9F04357
:1020E00081B04EF21808CEF2000858F8041C44F6ED
:1020F000D3520131C1F26202A1FB021204469709D8
:10210000FFF76CF9D8F800100546B1FBF7F64FF46D
:102110007A7900BFFFF762F9D8F80010401BB1FBD5
:10212000F7F1711A00FB0910A042F3D301B0BDE82A
:10213000F083000080B540F27000C2F20000017828
:1021400041F00402027041F00C00C0B2FFF750FFF2
:1021500080BD00002DE9F04385B0022000250390EA
:102160004FF40070C4F202056E464FF001084FF0C4
:102170000009009028463146CDF80480CDF808903B
:10218000FFF752F88020009005F500603146FFF718
:102190004BF80820009028463146FFF745F805F532
:1021A00080672024384631460094FFF73DF8102020
:1021B000009038463146FFF737F84FF480600090C2
:1021C00038463146FFF730F84FF4807000902846CB
:1021D0003146FFF729F8FFF701F9C72807D800BFF4
:1021E0000120FFF777FFFFF7F9F8C828F8D340F28E
:1021F0007200C2F2000080F8009040F27300C2F258
:10220000000040F2710580F80090C2F20005032042
:1022100085F80080FFF7FEFE0520FFF75BFF032037
:10222000FFF7F8FE0520FFF755FF0320FFF7F2FE4A
:102230000520FFF74FFF0220FFF7ECFE0520FFF718
:1022400049FF2878002818BF28242046FFF7D0FE31
:1022500040F27000C2F2000004210170FFF76AFF33
:10226000FFF7BEFE0620FFF7C3FE0520FFF732FF93
:1022700005B0BDE8F0830000F0B581B01446FFF76B
:10228000FDFE207888B340F2720540F273070134F6
:10229000C2F200050026C2F2000707E0FFF708FFC0
:1022A00028780130287014F8010BF0B12878102834
:1022B00007D338782E7001303870C1B20020FFF794
:1022C000DDFE14F8010C0D280AD00A28E6D1387872
:1022D000411C28783970C9B2FFF7D0FEE3E700BF90
:1022E00039780020FFF7CAFEDDE701B0F0BD00003D
:1022F000B0B584B040F2740042F200010122002423
:10230000C2F20000C4F20101C0F600720125CDE95D
:102310000244CDE90044047680F82040C0E90A2454
:10232000C56180F83040C0E90014C0E90244C0E94A
:102330000445FEF739FE68B940F27400C2F20000AD
:102340006946CDE900450294FEF7A6FD002804BFCA
:1023500004B0B0BDFEF79AFD2DE9F04387B0002729
:1023600043F630000697CDE90477CDE9027701976F
:10237000C4F20200016840F2000941F0040101606A
:102380000168C4F2020901F0040101910199019769
:10239000016809F5006541F0010101600168002252
:1023A00001F0010101910199019701680F2641F0A7
:1023B0000201016000680F2100F002000190019805
:1023C0002846FFF705F84846122100224FF0120870
:1023D000FEF7FEFF029602AE012428463146CDE903
:1023E00003470597FEF720FF48463146CDE90284B2
:1023F000CDE90477FEF718FF0720CDE9020709F5BC
:10240000806031460494FEF70FFF07B0BDE8F0830B
:1024100080B540F2BC0043F20001C2F20000C4F2F9
:1024200001014FF4827200234FF4007C80E80E001B
:102430000A21C0E90333C0E9053CC361C0E90833A0
:10244000C0E90A31FFF7DAFA002808BF80BDFEF7BD
:102450001DFD0000FEE70000FEE7000000F00700A1
:1024600080F00703042B28BF04234FF0FF3C033800
:102470000CFA03F338BF0020994381400CFA00F0B6
:1024800022EA0000084370477047000010B5044678
:1024900040689446B0F5827F0A461AD1A168B1F52A
:1024A000004F02D0B1F5806F04D121680B6823F092
:1024B00040030B60B0F5827F0BD1A068B0F5806F50
:1024C00013D120460121634600F04AF838B90020B4
:1024D00010BD20460121634600F042F860B1606DF6
:1024E00040F020006065032010BD20468021634637
:1024F00000F036F80028F2D1002010BD10B582B0EF
:1025000040F20003C2F200031B6849F68174C1F275
:102510005E64A3FB043C04464FEA5C504FF47A73BC
:10252000584301906068B0F5827F0DD113460A468A
:102530002046802100F014F878B1606D40F0200052
:102540006065032002B010BD019830B101980138D8
:102550000190206880680006F6D4002002B010BD0B
:102560002DE9F04381B01E4690460D468146FEF7A8
:1025700035FF301A00EB0807FEF730FF40F200018C
:10258000C2F200010968C1F3CB3179430091D9F857
:10259000001089682940A94219D1064608F10104B2
:1025A00006E000BFD9F8000080682840A8420ED19C
:1025B000002CF7D0FEF712FF801BB8420BD2009818
:1025C0000099002808BF0746481E0090EAE700204F
:1025D00001B0BDE8F083D9E900014268B1F5827F1E
:1025E00022F0E00242600BD1D9F80810B1F5004F9B
:1025F00002D0B1F5806F03D1016821F04001016084
:10260000D9F82810B1F5005F07D1016821F4005115
:102610000160016841F400510160012089F8510016
:10262000002089F85000032001B0BDE8F0830000CD
:1026300070470000B0B501380024B4EB106F1CBF28
:102640000120B0BD4EF21005CEF2000568604FF0DB
:10265000FF300F2100F062F80720AC6028602046B0
:10266000B0BD000080B5FEF7BFFE80BDB0B592B032
:1026700006AC20463021FDF75CFF002543F6400004
:102680000595CDE90355CDE901550095C4F2020049
:102690000168022241F080510160006800F0805022
:1026A0000090009847F200000095C4F20000016815
:1026B00062F38F310160006800F4404000900098A0
:1026C0000120099010200A90204606920C95FEF7F2
:1026D000F1FF68B90F20CDE9010501A80021CDE97E
:1026E00003550595FEF702FF002804BF12B0B0BDE8
:1026F000FEF7CCFB4EF68850CEF20000016841F4A4
:102700007001016070470000FEE700004EF60C50BB
:10271000CEF200000068C0F3022070474EF614535A
:1027200000F00F02CEF2000309011A4400F16043E9
:10273000B0F1FF3FC8BF03F564421170704700005D
:102740004EF60C51CEF200010A684FF6FF031A4014
:1027500060F30A2242F0806040F0FD70086070472C
:10276000E6B040F20044C4F20204FEF74BFEFFF76D
:102770007DFFFFF7F1FDFFF7BBFDFFF749FEFFF718
:10278000E9FC0FF6C01200200021FFF775FD0FF6DF
:10279000C41200200121FFF76FFD4FF49660FEF791
:1027A0002FFDFFF71DFC40F2BC089FEDB48A9FEDA2
:1027B000B49A9FEDB4BA9FEDB4DA04F58066C2F224
:1027C0000008B1EE04AAB2EE04CAB7EE00EA002592
:1027D00000200090FFF704FC002D4FF0010A0FF6D7
:1027E000841B00F05683FFF7FBFB00980FF6941A4A
:1027F00000280DF59A7B00F0D781FFF7F1FB002050
:1028000000215A46FFF738FD012001250DF1D009BE
:10281000009000BF40F27407C2F200073846FEF78E
:1028200081FC38464FF0FF31FEF71CFC3846FEF7BE
:10283000B7FB00EB800000EE100AB8EE400A80EE15
:1028400008FA2FEE0D0A80EE0A0A30EE0E0A10EE9C
:10285000100A01F0A5F802460B4648460FF62C1167
:10286000FDF790FD002001214A46FFF705FD3046A7
:1028700001210022FEF7ACFD304602210122FEF7C5
:10288000A7FD304604210122FEF7A2FD30460821B3
:102890000122FEF79DFD20460121FEF793FD78B150
:1028A00020460221FEF78EFDB0B120460421FEF73E
:1028B00089FDE8B14FF0FF3A4FF0FF3B24E000BF45
:1028C000204601210125FEF77DFD0028F8D04FF0BC
:1028D000000A4FF0000B17E020460221FEF772FDC0
:1028E0000028F9D04FF0000A01254FF0010B0BE052
:1028F00020460421FEF766FD0028F9D04FF0020BB8
:102900004FF0000A012500BF304602210022FEF7E9
:102910005FFD304601210122FEF75AFD30460421B9
:102920000122FEF755FD304608210122FEF750FD39
:1029300020460121FEF746FDA0B120460221FEF708
:1029400041FDD8B120460421FEF73CFD08BB00BF85
:1029500020460421FEF736FD0028F9D04FF0020B87
:10296000012508E0204601210125FEF72BFD002866
:10297000F8D04FF0000B4FF0010A0AE02046022188
:10298000FEF720FD0028F9D001254FF0010A4FF095
:10299000010B304604210022FEF71AFD30460221C9
:1029A0000122FEF715FD304601210122FEF710FD40
:1029B000304608210122FEF70BFD20460121FEF7DB
:1029C00001FDA8B120460221FEF7FCFCE0B1204643
:1029D0000421FEF7F7FC10BB20460421FEF7F2FCB1
:1029E0000028F9D04FF0020A01254FF0020B16E043
:1029F000204601210125FEF7E5FC0028F8D04FF024
:102A0000000B4FF0020A0AE0204602214FF0020AB2
:102A1000FEF7D8FC0028F7D001254FF0010B304617
:102A200008210022FEF7D4FC304602210122FEF7E5
:102A3000CFFC304604210122FEF7CAFC30460121BA
:102A40000122FEF7C5FC20460121FEF7BBFCE8B1E0
:102A500020460221FEF7B6FC20B320460421FEF7F3
:102A6000B1FC50BB20460421FEF7ACFC0028F9D095
:102A70004FF0020B4FF0030A01251EE000F07F45E6
:102A8000007014460000FA4300C07944204601213A
:102A90000125FEF797FC0028F8D04FF0000B4FF00F
:102AA000030A0AE020460221FEF78CFC0028F9D038
:102AB0004FF0030A01254FF0010BBAF1030F08BFD5
:102AC000BBF1020F04D0BAF1030F61D0A2E600BF40
:102AD000FFF786FA002000214DAAFFF7CDFB00206A
:102AE00001214A46FFF7C8FB2FEE0C0ABDEEC00AD3
:102AF00010EE100AA4F580698DF8CF004846102129
:102B00000022FEF765FC0DF1CF0540462946012263
:102B10004FF0FF33FFF7AEF8484610210122FEF7D1
:102B200057FC00208DF8CF00484610210022FEF708
:102B30004FFC00BF9DF8CF00012807D04046294632
:102B400001224FF0FF33FEF7EDFFF3E74846102177
:102B50000122FEF73DFCFFF743FA9DF8CF200DF16F
:102B6000070528460FF22C61FDF70CFC0020002120
:102B70002A460025FFF780FB4FF47A70FEF740FBF2
:102B800000200DF1D0090090BAF1030F7FF442AE9E
:102B9000BBF1020F7FF43EAE1CE600BF032F08BF5F
:102BA000B9F1020F3FF429AE40F27405C2F20005FC
:102BB0002846FEF7B7FA28464FF0FF31FEF752FAE3
:102BC0002846FEF7EDF900EB800000EE100AB8EEA3
:102BD000400A80EE08FA2FEE090A80EE0A0A30EE6B
:102BE0000B0A10EE100A00F0DBFE02460B465846B8
:102BF0005146FDF7C7FB002000215A46FFF73CFB7A
:102C0000304601210022FEF7E3FB3046022101227B
:102C1000FEF7DEFB304604210122FEF7D9FB3046E9
:102C200008210122FEF7D4FB20460121FEF7CAFB52
:102C300070B120460221FEF7C5FB98B12046042161
:102C4000FEF7C0FBC0B14FF0FF374FF0FF391CE07B
:102C500020460121FEF7B6FB0028F9D000274FF0EF
:102C6000000912E020460221FEF7ACFB0028F9D053
:102C70004FF0010908E000BF20460421FEF7A2FB47
:102C80000028F9D04FF00209002730460221002227
:102C9000FEF79EFB304601210122FEF799FB3046EC
:102CA00004210122FEF794FB304608210122FEF7A1
:102CB0008FFB20460121FEF785FB98B120460221BB
:102CC000FEF780FBC0B120460421FEF77BFBE0B994
:102CD00020460421FEF776FB0028F9D04FF00209C8
:102CE000012712E0204601210127FEF76BFB002897
:102CF000F8D04FF0000908E020460221FEF762FB01
:102D00000028F9D001274FF00109304604210022A4
:102D1000FEF75EFB304602210122FEF759FB3046EA
:102D200001210122FEF754FB304608210122FEF763
:102D30004FFB20460121FEF745FB98B120460221BA
:102D4000FEF740FBC0B120460421FEF73BFBE0B993
:102D500020460421FEF736FB0028F9D002274FF069
:102D6000020912E020460121FEF72CFB0028F9D0D1
:102D70004FF00009022708E0204602210227FEF753
:102D800021FB0028F8D04FF001093046082100222D
:102D9000FEF71EFB304602210122FEF719FB3046EA
:102DA00004210122FEF714FB304601210122FEF727
:102DB0000FFB20460121FEF705FB98B120460221BA
:102DC000FEF700FBC0B120460421FEF7FBFAE0B994
:102DD00020460421FEF7F6FA0028F9D04FF0020948
:102DE00012E000BF20460121FEF7ECFA0028F9D0DE
:102DF0004FF0000908E000BF20460221FEF7E2FA8A
:102E00000028F9D04FF001090327032F08BFB9F1BB
:102E1000020F7FF4C3AEFFF7E3F8002000215A460B
:102E2000FFF72AFA2FEE0C0ABDEEC00A10EE100AC8
:102E3000A4F580658DF80700284610210022FEF7D2
:102E4000C7FA40460DF1070101224FF0FF33FEF7AC
:102E500011FF284610210122FEF7BAFA9EE68DF8EE
:102E600007A0A4F58065284610210022FEF7B0FADD
:102E700040460DF1070101224FF0FF33FEF7FAFE45
:102E8000284610210122FEF7A3FAB9F1000F7FF4C2
:102E9000AAAC002000215A46FFF7EEF93046012186
:102EA0000022FEF795FA304602210122FEF790FA41
:102EB000304604210122FEF78BFA30460821012218
:102EC000FEF786FA20460121FEF77CFA80B1204603
:102ED0000221FEF777FAB8B120460421FEF772FA14
:102EE000F0B14FF0FF354FF000094FF0FF3721E010
:102EF000204601214FF00109FEF764FA0028F7D0BF
:102F00000025002716E000BF20460221FEF75AFAEE
:102F10000028F9D000254FF0010901270AE000BF81
:102F200020460421FEF74EFA0028F9D0022700259A
:102F30004FF00109304602210022FEF749FA3046DF
:102F400001210122FEF744FA304604210122FEF756
:102F50003FFA304608210122FEF73AFA20460121C5
:102F6000FEF730FAA0B120460221FEF72BFAD8B1C5
:102F700020460421FEF726FA00BB00BF20460421AC
:102F8000FEF720FA0028F9D002274FF0010908E0E7
:102F9000204601214FF00109FEF714FA0028F7D06E
:102FA000002701250AE000BF20460221FEF70AFAA9
:102FB0000028F9D04FF001090125012730460421EE
:102FC0000022FEF705FA304602210122FEF700FA40
:102FD000304601210122FEF7FBF93046082101228B
:102FE000FEF7F6F920460121FEF7ECF9B0B12046D4
:102FF0000221FEF7E7F9E8B120460421FEF7E2F9E5
:1030000010BB00BF20460421FEF7DCF90028F9D0F0
:1030100002254FF00109022716E000BF20460121DA
:103020004FF00109FEF7CEF90028F7D0002702255E
:103030000AE000BF204602210225FEF7C3F900285E
:10304000F8D04FF001090127304608210022FEF791
:10305000BFF9304602210122FEF7BAF930460421B9
:103060000122FEF7B5F9304601210122FEF7B0F941
:1030700020460121FEF7A6F9C0B120460221FEF745
:10308000A1F9002844D020460421FEF79BF9B8B9E5
:1030900020460421FEF796F90028F9D002270325DF
:1030A0004FF00109B9F1000F0ED1F2E620460121DF
:1030B0004FF00109FEF786F90028F7D00027032515
:1030C000B9F1000F3FF4E5AE3FF48DABFEF788FF9A
:1030D00057EA05004FF0FF008DF807003FF4BFAE40
:1030E000002D08BF012F21D0002D08BF022F1FD0B7
:1030F000012D08BF002F1DD0012D08BF012F1BD0AF
:10310000012D08BF022F7FF4C0AE062016E000BFDD
:1031100020460221FEF756F90028F9D003254FF08A
:1031200001090127B9F1000FCED1B2E6022005E076
:10313000032003E0042001E0052000BF8DF8070014
:103140008FE600BF3939323433303432202D2052EB
:10315000657900003939323433303131202D20691E
:103160006C6900003153696E2032537175203354FD
:103170007269203453696E41203553747020365380
:1031800061770000252E31666D730000252E3166B3
:10319000487A0000256400005FEA400C08BF91F007
:1031A000000F4FEA8C234FEAC12243EA51514FEA04
:1031B0001C5018BF00F5F0404FEA300018BF41F036
:1031C00000415FEA6C5C00F02980BCF1FF3F08BF62
:1031D00040F080407047130C06BF12044FF0100CF3
:1031E0004FF0000C130E04BF12020CF1080C130F69
:1031F00004BF12010CF1040C930F04BF92000CF1F8
:10320000020CD30F04BF52000CF1010C11464FF019
:103210000002A0F11F00A0EB0C00704711F0004F5E
:1032200008BF704731F000413FF4D5AF0B0C06BF2B
:1032300009044FF0100C4FF0000C0B0E04BF0902F4
:103240000CF1080C0B0F04BF09010CF1040C8B0FDF
:1032500004BF89000CF1020CCB0F04BF49000CF134
:10326000010CCCF1200322FA03F341EA030102FA34
:103270000CF2A0EB0C0000F10100704723F07F4737
:1032800020F07F4C80EA030000F00040ACEB070325
:1032900003F57C5303F1FF032DE9804909B44FEA9C
:1032A000144324EA03484FEA154B25EA0B4E0FF26C
:1032B000042606EB13273E7803FB0667C7F50007D5
:1032C00007FB06F64FEAD64606F102064FEA5437E8
:1032D00007FB066CCCF1005C4FEA1C472CEA074C5C
:1032E0000CFB06F507FB06F404EB15464FEA9616B1
:1032F00049085FEA320234BF00204FF000404FEA35
:10330000D13706FB07FC4FEA1C4C0CFB0BF7D21B1A
:1033100003FB0CF761EB07010CFB0EF7B0EB07406A
:1033200072EB17420CFB08F734BFA2EB0742B2EB7B
:10333000074261EB17414FEA0C444FEA910706FB45
:1033400007FC4FEA1C4C0CFB0BF7B0EBC74072EBD1
:10335000573203FB0CF734BFA2EBC742B2EBC742B4
:1033600061EB57310CFB0EF7B0EBC70072EB5772F5
:103370000CFB08F734BFA2EBC702B2EBC70261EB4C
:1033800057714FEA816141EA92114FEA826242EA43
:1033900090124FEA806004EBCC04039F4FEAD137D0
:1033A00006FB07FC4FEA1C4C0CFB0BF7D21B03FB84
:1033B0000CF761EB07010CFB0EF7B0EB074072EB6B
:1033C00017420CFB08F734BFA2EB0742B2EB0742EF
:1033D00061EB17414FEA8C5504EB9C244FEA9107AF
:1033E00006FB07FC4FEA1C4C0CFB0BF7B0EBC7408D
:1033F00072EB573203FB0CF734BFA2EBC742B2EBC0
:10340000C74261EB57310CFB0EF7B0EBC70072EB14
:1034100057720CFB08F734BFA2EBC702B2EBC7022E
:1034200061EB57714FEA816141EA92114FEA826282
:1034300042EA90124FEA806015EB4C2544F10004FB
:103440004FEAD13706FB07FC4FEA1C4C0CFB0BF78D
:10345000D21B03FB0CF761EB07010CFB0EF7B0EB83
:10346000074072EB17420CFB08F734BFA2EB074290
:10347000B2EB074261EB17414FEA813141EA9241D9
:103480004FEA823242EA90424FEA80304FEA0C76AD
:1034900015EB1C1544F1000448EA03434EEA0B48BF
:1034A0004FF0000EB2EB080C71EB030724BF62462D
:1034B00039464EEB0E0E4FF0000B001852414941B9
:1034C0004BEB0B0BB2EB080C71EB03077BF1000B22
:1034D00024BF624639464EEB0E0E4FF0000B00182B
:1034E000524149414BEB0B0BB2EB080C71EB03075C
:1034F0007BF1000B24BF624639464EEB0E0E51EABB
:10350000020718BF46F0010616EB0E7655F10002D1
:1035100054F1000103D5BDE88901BDE80088BDE88C
:103520008901BDE80048B619524141EB0101A3F100
:103530000103704780807F7E7D7C7B7A7978777607
:1035400076757473727171706F6E6E6D6C6C6B6A80
:103550006A6968686766666564646363626161601E
:10356000605F5F5E5E5D5D5C5C5B5B5A5A5959589B
:103570005857575656555555545453535252525105
:10358000515050504F4F4F4E4E4D4D4D4C4C4C4B5B
:103590004B4B4A4A4A4949494848484747474746A2
:1035A00046464545454444444443434343424242DE
:1035B000424141419C46002B30D477002BD04FEA4A
:1035C00037071CB503B44FF010004FF01001BAF1EB
:1035D000000F06D0BCF1000FDCBF40F0080040F047
:1035E00008014FF000000FBCBDE810400BF1010BCB
:1035F000BBF1010F08BF5FEA170722BF12F10102FA
:1036000011F101014FF0004143F1000300F00040CF
:1036100043EA00007047F9D35708D0E746EA064668
:103620004FEA164613F1400F1FDD13F1200FDFBFE5
:1036300016430A46002120335B42BED0C3F1200767
:1036400046EA06464FEA164602FA07F746EA070632
:1036500022FA03F2C3F1200701FA07F742EA070250
:1036600021FA03F14FF00003A7E746EA020646EA13
:1036700006464FEA164646EA0106BCBF46EA06463B
:10368000360C4FF000034FF000024FF0000194E7BA
:103690002DE9804C70B49A46934691E8380007C8EB
:1036A00031EA400C48BF34EA430C03D5FFF7E6FD8E
:1036B000FFF780FFF0BCBDE8008C2DE9804C70B4B2
:1036C0009A46934691E8380007C810F0804F08BF2B
:1036D00013F0804F03D100F005F8FFF76BFFF0BC4B
:1036E000BDE8008C20F07F4723F07F4C80EA030088
:1036F00000F0004007EB0C03A3F57C53A3F1FE039D
:1037000092F0000F00F0B38095F0000F00F077808A
:103710002DE901494FEA114021EA00484FEA1446D9
:1037200024EA064700FB06FC08FB06F607FB08F840
:1037300018EB06484CEB164C00FB07F718EB074854
:103740004CEB17404FEA124B22EA0B4E4FEA15465C
:1037500025EA06470BFB06FC0EFB06F607FB0EFEF2
:103760001EEB064E4CEB164C0BFB07F71EEB074E01
:103770004CEB174B18EB0B0840F1000018EB0E0B4D
:1037800058EB000840F100008F1A4FF000014FF095
:1037900000063CBFC943661B14BFB5EB040C0021F7
:1037A0003CBFC943F61B4FEA174427EA04454FEADA
:1037B0001C472CEA074C04FB076205FB07F70CFBD0
:1037C00005F616EB074642EB174204FB0CFC16EB22
:1037D0000C4642EB1C421BEB060658EB0202414131
:1037E0004EEA8E0E46EA9E0601D5BDE80189B6195D
:1037F000524141EB0101A3F10103BDE801894FEA08
:10380000144524EA05464FEA114721EA074C05FB17
:1038100007F406FB07F70CFB06F111EB074144EB3D
:10382000174405FB0CFC11EB0C4144EB1C444FEA24
:10383000124722EA074C05FB07F206FB07F70CFBD1
:1038400006F616EB074642EB174205FB0CFC16EB9F
:103850000C4642EB1C456A1854F1000148BF704702
:10386000B619524141EB0101A3F10103704795F0F4
:10387000000F37D04FEA114221EA02464FEA1447BF
:1038800024EA074C02FB07F106FB07F70CFB06F4E2
:1038900014EB074441EB174102FB0CFC14EB0C4406
:1038A00041EB1C414FEA154725EA074C02FB07F59F
:1038B00006FB07F70CFB06F616EB074645EB17452C
:1038C00002FB0CFC16EB0C4645EB1C42121951F1A5
:1038D000000148BF7047B619524141EB0101A3F105
:1038E000010370474FEA144524EA05464FEA1147A1
:1038F00021EA074C05FB07F106FB07F70CFB06F274
:1039000012EB074241EB174105FB0CFC12EB0C429A
:1039100051EB1C414FF0000648BF7047921841EB35
:103920000101A3F10103704703B40198410000981D
:1039300050EAC12018BF04204A0D18BF40F0010012
:1039400040F2FF72B2EB515F08BF40F00200012865
:1039500008BF052002B0704730380A2801D2012084
:10396000704700207047000010B500290AD0087881
:10397000002807D005487844FDF7BAF9002801D09F
:10398000002010BD0248784410BD0000EE01000088
:10399000E60100000808A0F500114FEA3101704768
:1039A00043004FEAD30C4FEA3C0C43401FBF400793
:1039B0000CF1605113F0FE4F70471CF0006F03D103
:1039C0000CF00041002070470CF0004343EA5070B7
:1039D00040EACC0010B500F00EF800BF00000092E5
:1039E0004FEA0001FFF7D6BF4FF00041A1F50021DB
:1039F0004FF0000070470EF1020E2EF0030E5EF83D
:103A0000044B244204D44FEA4102B2F17F4F11D853
:103A10004FEA4003B3F17F4F0CD80ED14FEAD07C70
:103A20000CEB4C0C0CF1020CB2F17F4F08BF4CEBCD
:103A3000D17C04E04FF0080C01E04FEAD17C0CEBA4
:103A40004C0324FA03F404F00704B4F1040C06D286
:103A50000EEB840CBDE810404CF0010C6047DFE831
:103A60000CF0070802024FF00040A0F5800010BDE6
:103A70000846420018BFD2F1807288BF00F00040B3
:103A800010BDF1EE100A4FF6FF71C0F2C03120EA0E
:103A9000010040F04070E1EE100A7047FCF7A4BE50
:103AA00002400000000000A00000000005400000EF
:103AB000000000C8000000000C4000000000409C16
:103AC00000000000194000000020BCBE0000000003
:103AD00034400000BFC91B8E00000004B540000048
:103AE000504BCFD06607E2CF010000006C410000D0
:103AF0003E8251AADFEEA73401000000D942000047
:103B0000DCB5A0E23A301F97FFFFFFFFB44500008D
:103B1000FD25A0C8E9A3C14FFFFFFFFFFF3F000045
:103B20000000008000000000FF3F00000000008057
:103B3000000000000000000000000000010203047B
:103B400006070809803B0008000000201000000064
:103B5000D0010008903B000810000020080700007A
:103B6000EC0100081C00000043000000F8FFFFFF0C
:103B70000C0000000E0000000F0000002E000000EE
:103B80000024F4000100000010000000000000000C
:040000050800019559
:00000001FF
