:020000040800F2
:10000000D006002035020008C112000811120008B5
:10001000BD1200082D040008711500080000000042
:10002000000000000000000000000000991400081B
:100030003104000800000000F1120008CD1400088F
:100040004F0200084F0200084F0200084F0200084C
:100050004F0200084F0200084F0200084F0200083C
:100060004F0200084F0200084F0200084F0200082C
:100070004F0200084F0200084F0200084F0200081C
:100080004F0200084F0200084F0200080000000065
:100090000000000000000000000000004F02000807
:1000A0004F0200084F0200084F0200084F020008EC
:1000B0004F0200084F0200084F0200084F020008DC
:1000C0004F0200084F0200084F0200084F020008CC
:1000D0004F0200084F0200084F0200080000000015
:1000E0004F0200084F0200084F0200080000000005
:1000F0000000000000000000000000004F020008A7
:10010000000000004F0200084F0200084F020008E4
:1001100000000000000000000000000000000000DF
:100120004F0200084F0200084F0200084F0200086B
:100130004F02000800000000000000000000000066
:100140000000000000000000000000004F02000856
:100150004F0200084F0200084F0200084F0200083B
:100160004F0200084F0200080000000000000000DD
:10017000000000000000000000000000000000007F
:10018000000000004F020008000000000000000016
:100190004F02000800F002F800F03CF80AA090E8D6
:1001A000000C82448344AAF10107DA4501D100F032
:1001B00031F8AFF2090EBAE80F0013F0010F18BFC3
:1001C000FB1A43F001031847682900008829000042
:1001D000103A24BF78C878C1FAD8520724BF30C873
:1001E00030C144BF04680C60704700000023002445
:1001F00000250026103A28BF78C1FBD8520728BF37
:1002000030C148BF0B6070471FB502F076F81FBDC4
:1002100010B510BD00F0D0F81146FFF7F5FF01F062
:10022000D3F900F0EEF803B4FFF7F2FF03BC00F0DF
:10023000F5F800000948804709480047FEE7FEE757
:10024000FEE7FEE7FEE7FEE7FEE7FEE7FEE7FEE786
:1002500004480549054A064B704700005D15000833
:1002600095010008D0000020D0060020D002002018
:10027000D002002053EA020C00F069802DE9F04B17
:100280004FF00006002B1FBFB3FA83F503FA05F405
:1002900024FA05F65E4012BF1643B2FA82F502FA5E
:1002A00005F4C5F120051EBF22FA05FC44EA0C0442
:1002B000203556EA044C4FEA144418BF641C4FF032
:1002C00000084FF00009904271EB030C39D300296C
:1002D00019BFB1FA81F701FA07F6B0FA80F700FA10
:1002E00007F6C7F120071EBF20FA07FC46EA0C06F6
:1002F0002037B6FBF4FCA7EB0507103F07F01F0BF8
:10030000CBF120062CFA06F60CFA0BFB44BFB346E1
:100310000026202FA4BF5E464FF0000B5BEA060CC0
:1003200008BF4FF0010B19EB0B0948EB0608ABFBBC
:10033000027C06FB02CC0BFB03CCC01B71EB0C0157
:10034000C1E70B46024641464846BDE8F08B13B56F
:10035000084318BF4FF0FF300146AFF30080BDE8FF
:100360001C4070474FF0000200B513469446964675
:10037000203922BFA0E80C50A0E80C50B1F12001B8
:10038000BFF4F7AF090728BFA0E80C5048BF0CC066
:100390005DF804EB890028BF40F8042B08BF7047C4
:1003A00048BF20F8022B11F0804F18BF00F8012B36
:1003B0007047704770477047754600F02BF8AE469F
:1003C00005006946534620F00700854618B020B561
:1003D000FFF73EFFBDE820404FF000064FF000075A
:1003E0004FF000084FF0000BAC46ACE8C009ACE899
:1003F000C009ACE8C009ACE8C00921F007018D468E
:10040000704710B50446AFF300802046BDE81040A9
:10041000FFF709BF0048704710000020014918206D
:10042000ABBEFEE72600020070470000FEE70000BA
:1004300070470000EFF3108072B600BFFEE70000C7
:10044000B0B5044600F0E4F8054640F20400C2F2FC
:1004500000000078611C18BF044400BF00F0D8F809
:10046000401BA042FAD3B0BD2DE9F04F83B000F19C
:100470003E4202F1FF724FEAB22241F200070192BE
:10048000C4F2020707224FF0010E00254FF0000AC8
:100490004FF00008B84208BF042200920AE000BFF3
:1004A00008F101080AF1040AB8F1100F05F102057C
:1004B00000F0A4800C680EFA08FB14EA0B09EFD0D8
:1004C0004C6804F0030CACF1010EBEF1010F11D821
:1004D0000322876802FA05F6CA68B743AA403A437E
:1004E00082604268C4F3001722EA0B0207FA08F799
:1004F0003A434260BCF1030F1CD0C26803238E68EC
:1005000003FA05F7BA4306FA05F73A43BCF1020FBE
:10051000C2600FD16FF0030202EA580202440AF0EF
:100520001C060F23176A03FA06F40B69A743B340AE
:100530003B431362026803234F68AB409A4307F0C2
:100540000303AB401A4317F4403F4FF0010E026023
:10055000A6D0002243F644030292C4F202031A68B2
:1005600043F6004442F480421A601A68C4F201045F
:1005700002F480420292029A28F003024FF6084BDE
:100580002244CFF6FF7B52F80B300AF00C070F26FF
:10059000BE4023EA060C019B009E042B38BF1E467A
:1005A00006FA07F747EA0C0342F80B30A2684B68DB
:1005B00042EA090743F60C4CDE0258BF22EA09075B
:1005C000A760C4F2010CDCF800209E0242EA090791
:1005D00058BF22EA0907CCF8007062689E0342EA1D
:1005E000090758BF22EA090767602268DB0342EA6D
:1005F000090358BF22EA0903236051E703B0BDE8AD
:10060000F08F0000002A08BF0904816170470000D4
:1006100040F2C800C2F200000068704740F20400D7
:1006200040F2C801C2F20000C2F2000100780A687C
:10063000104408607047000080B543F60040C4F2E3
:100640000200016841F400710160016841F48061B9
:100650000160016841F480710160032000F05CF8E2
:100660000F2000F005F800F02BF8002080BD0000FE
:10067000B0B540F20402C2F2000240F2000112786A
:10068000C2F200014FF47A730968B3FBF2F2044638
:10069000B1FBF2F1084600F0B7FD0F2C4FF0010559
:1006A0000CD858B94FF0FF3021460022002500F049
:1006B00023F840F20800C2F2000004602846B0BDF2
:1006C00082B0002043F640010190C4F202014A6862
:1006D00042F480424A604A6802F480420192019AE0
:1006E0000090086840F080500860086800F0805072
:1006F0000090009802B0704770B514460D4606464B
:1007000000F038FF2946224600F0DCFD0146304665
:1007100000F038FF70BD000080B500F045FF80BDDF
:100720002DE9F041002800F08B8043F60808C4F260
:1007300002080446D8F8F8030D4600F00700884286
:1007400007D288F8F853D8F8F80300F00700A84259
:1007500076D12068810717D5410705D5D8F8001054
:1007600041F4E051C8F80010010705D5D8F8001091
:1007700041F46041C8F80010D8F80010A26821F0D8
:10078000F0011143C8F80010C0073FD1D8F8F803B2
:1007900000F00700A84207D988F8F853D8F8F80302
:1007A00000F00700A8424BD12068410707D5D8F8D0
:1007B0000010E26821F4E0511143C8F8001000076E
:1007C00008D5D8F80000216920F4604040EAC10053
:1007D000C8F8000000F054F8D8F8001042F61E32B5
:1007E000C1F30311C0F60002515C40F2000220FA8E
:1007F00001F140F20800C2F200000068C2F20002FB
:100800001160FFF735FF0020BDE8F0816068811EB0
:10081000022907D258F8081C89015CBF0120BDE8F5
:10082000F08110E0012807D158F8081C89035CBF4B
:100830000120BDE8F08106E058F8081C890702D4C1
:100840000120BDE8F081D8F8001021F00301084331
:10085000C8F80000FFF7DCFE064641F2883700BF0B
:10086000D8F80000616800F00C00B0EB810F8DD06B
:10087000FFF7CEFE801BB842F2D90320BDE8F0811D
:1008800010B543F60404C4F20204606800F00C00E2
:1008900008280AD0042819BF42F20040C0F2F40030
:1008A00047F64000C0F27D1010BD20682168236823
:1008B000490247F64001C0F27D1100F03F02C3F348
:1008C00088105CBF42F20041C0F2F401A1FB0001BC
:1008D0000023FFF7CFFC21680222C1F3014102EBA4
:1008E0004101B0FBF1F010BD2DE9F04182B00028CC
:1008F00000F0A2800446007843F60006C007C4F268
:10090000020643D0B06800F00C00042805D130681E
:1009100080033BD56068C8BB8EE0B06800F00C0077
:10092000082802D170684002F1D46568B5F5A02F9F
:100930000AD0B5F5803F0BD0306820F480303060AD
:10094000306820F4802006E0306840F48020306079
:10095000306840F480303060FFF75AFE002D0546C5
:1009600011D000BF3068800310D4FFF751FE401B48
:100970006428F7D922E100BFFFF74AFE401B642834
:100980004FF0030055D830688003F5D420788007F5
:100990001AD5B06810F00C0F09D0B06800F00C0048
:1009A000082840F08A807068400200F18680306834
:1009B000800702D5E06801283ED13068216920F027
:1009C000F80040EAC10030602078000738D4207871
:1009D00040074CD4A5695DB3B06800F00C0008284E
:1009E00040F09E80012D27D07068E16900F48002FC
:1009F0008A4221D1216A00F03F028A421CD147F687
:100A0000C071626A0140B1EB821F15D1A26A002356
:100A1000CFF6FF7303EBC23200F440316FF30F02E5
:100A2000914209D1E16A00F07060B0EB016F03D12F
:100A3000002002B0BDE8F081012002B0BDE8F081E5
:100A40006069002840F20000C4F2472057D001211D
:100A5000C0F8801EFFF7DCFD054600BF706F800701
:100A6000B5D4FFF7D5FD401B0228F7D9A6E0306CBE
:100A700010F080580AD100200190306C40F0805076
:100A80003064306C00F080500190019847F200070C
:100A9000C4F200073868C00524D4386840F4807078
:100AA0003860FFF7B5FD05463868C0051AD4FFF772
:100AB000AFFD401B0228F7D980E0E068002851D044
:100AC0000020C4F2472001210160FFF7A1FD054687
:100AD000306880073FF571AFFFF79AFD401B022891
:100AE000F6D96BE0A568052D50D0012D52D0306F9E
:100AF00020F001003067306F20F004004DE000214D
:100B0000C0F8801EFFF784FD054600BF706F8007A8
:100B10007FF55DAFFFF77CFD401B0228F6D94DE065
:100B20000027C4F2472700203866FFF771FD022D29
:100B300005460BD13068800158D5FFF769FD401B91
:100B400002284FF00300F5D973E700BF3068800139
:100B50007FF56EAFFFF75CFD401B02284FF00300EE
:100B6000F4D966E70020C4F2472000210160FFF7B6
:100B70004FFD0546306880077FF526AFFFF748FD3B
:100B8000401B02284FF00300F4D952E7306F40F0C9
:100B900004003067306F40F001003067FFF738FD28
:100BA000002D054641F2883714D000BF306F800712
:100BB00013D4FFF72DFD401BB842F7D9032002B034
:100BC000BDE8F081FFF724FD401BB8424FF0030061
:100BD0003FF62FAF306F8007F4D4B8F1000F7FF4E9
:100BE000F9AE306C20F080503064F3E604F11C055F
:100BF0002FCD08430021CFF6FF7140EA821001EBB0
:100C0000C3316FF30F0140EA0560084370600120B3
:100C10003866FFF7FDFC0446306880013FF508AFF9
:100C2000FFF7F6FC001B02284FF00300F4D900E7A1
:100C300070B538B10446406A30B10020206104F13B
:100C4000140007E0012070BD6068B0F5827F03D01A
:100C500004F11C00002101600026A66294F85100F6
:100C600020B9204684F8506000F03CF8022084F857
:100C7000510094E80F0001F48271056802F4044207
:100C800025F040050560114403F400622369114416
:100C900003F002026369114403F00102A369E569EC
:100CA000114403F40072114405F03802256A11441E
:100CB00005F08002A56A114305F40052114301605A
:100CC000626A042101EA134102F0100211444160FA
:100CD000C16921F40061C1610120666584F8510099
:100CE000304670BD80B586B043F200010068C4F2A2
:100CF0000101002288420592CDE90322029201926D
:100D000001D006B080BD43F630000092C4F202006C
:100D1000436943F480534361436903F48053009370
:100D2000009B0092036843F001030360006800F039
:100D3000010000900098F02001900220CDE902020D
:100D4000032004900520059001F5504001A9FFF70C
:100D50008BFB06B080BD00002DE9F04381B0044656
:100D600040681D461746B0F5827F0E4602D1A06846
:100D700000285AD094F85000012803D1022001B075
:100D8000BDE8F0834FF0010984F85090FFF740FC74
:100D900094F85110012946D18046002E4FF00100F1
:100DA00018BF002F77D0042084F851000020606520
:100DB000A663A787E7872063A086E086A1682064F2
:100DC000B1F5004F606408D12068016821F040014E
:100DD0000160016821F480410160206801684906D2
:100DE00003D4016841F040010160E168E08F49B33C
:100DF000002843D06E1C09E0C068A16B21F8020BEB
:100E0000A163E08F0138E087E08FB8B32068816884
:100E1000C907F1D1FFF7FCFB002EF5D0A0EB0800CD
:100E2000A842F1D328E0022035E0042084F85100E4
:100E30002046314632463B46009500F0F3F801B0BB
:100E4000BDE8F083D0B16E1C0AE0007BA16B087096
:100E5000A06B0130A063E08F0138E087E08F68B1BC
:100E600020688168C907F0D1FFF7D2FB002EF5D0CA
:100E7000A0EB0800A842F1D303200CE0204629464D
:100E8000424600F037FA00281CBF20206065606DE4
:100E9000002818BF0120002184F8519084F85010D8
:100EA00001B0BDE8F08300002DE9F04381B00446B5
:100EB00090F85000012803D1022001B0BDE8F08372
:100EC0004FF001091D4616460F4684F85090FFF773
:100ED0009FFB94F8511001295DD18046002F4FF0FF
:100EE000010018BF002E00F09580032084F8510007
:100EF000002060652763A686E686A063A087E0875A
:100F0000A168C4E91000B1F5004F08D1206801685C
:100F100021F040010160016841F4804101602068D6
:100F20000168490603D4016841F04001016061682D
:100F3000731EE268B1FA81F1B3FA83F349095B09E0
:100F4000B2F5006F41EA030127D139B1216B09885D
:100F5000C160B81C2063E08E0138E086E08E002876
:100F600041D06E1C0AE000BF216B31F8022BC26039
:100F70002163E08E0138E086E08EA0B320688168AE
:100F80008907F1D4FFF744FB002EF5D0A0EB080051
:100F9000A842F1D325E002203CE039B13978017351
:100FA000206B01302063E08E0138E086E08ED0B106
:100FB0006E1C0AE0216B09780173206B01302063FD
:100FC000E08E0138E086E08E68B12068816889078C
:100FD000F0D4FFF71DFB002EF5D0A0EB0800A842CF
:100FE000F1D3032016E020462946424600F0BAF924
:100FF00000281CBF20206065A06838B90020009040
:101000002068C1680091806800900098606D002899
:1010100018BF0120002184F8519084F8501001B0CD
:10102000BDE8F0832DE9F04381B0044690F850000C
:10103000012803D1022001B0BDE8F08301201E4643
:1010400015460F4684F85000FFF7E2FA94F8511065
:10105000814601290CD06068B0F5827F76D10429E1
:101060004FF0020040F0C680A168002940F0C28025
:10107000002F4FF0010018BF002D00F0BB80002EA4
:1010800000F0B88094F85100002104281CBF05200E
:1010900084F851006165A563E687A6872763E68625
:1010A0002068A686216461640168490603D401684A
:1010B00041F0400101606168731EE268B1FA81F19C
:1010C000B3FA83F3DDF8208049095B09B2F5006FBC
:1010D00041EA03013CD139B1216B0988C160B81CD8
:1010E0002063E08E0138E086012608F1010500BF8B
:1010F000E08E10B9E08F002866D0206881688907EB
:101100000CD5E18E012E09D141B1216B002631F8B9
:10111000022BC2602163E18E0139E1868168C90733
:101120000AD0E18F41B1C068A16B012621F8020B02
:10113000A163E08F0138E087FFF76AFA002DD7D06E
:10114000A0EB09004045D3D3032053E0022051E037
:1011500039B139780173206B01302063E08E01389A
:10116000E086012608F10105E08E08B9E08F58B34A
:101170002068816889070DD5E18E012E0AD149B119
:10118000216B002609780173206B01302063E08E0B
:101190000138E08620688168C9070BD0E18F49B12A
:1011A000C068A16B01260870A06B0130A063E08FBE
:1011B0000138E087FFF72CFA002DD5D0A0EB09000D
:1011C0004045D1D3032015E0204641464A4600F071
:1011D000C9F818B12020606501200BE0A068002844
:1011E0004FF0000006D100902168CA68009289681B
:1011F00000910099012184F85110002184F85010C9
:1012000001B0BDE8F083000080B500F047F980BD73
:10121000FEE7000070B586B0002543F63000059566
:10122000CDE90355CDE901550095C4F202000168EE
:1012300040F6000441F0040101600168C4F20204B8
:1012400001F004010091009900950168002241F02D
:10125000010101600068FF2100F00100009000988A
:101260002046FF26FFF7CEF90120CDE9020501A9AE
:10127000204601960495FFF7F7F806B070BD000010
:1012800080B540F2700043F20001C2F20000C4F2E7
:1012900001010022C0E900120A21C0E90222C0E9CE
:1012A00004228261C0E90822C0E90A21FFF7C0FCDC
:1012B000002808BF80BDFFF7BDF80000FEE7000072
:1012C000FEE7000000F0070080F00703042B28BFB2
:1012D00004234FF0FF3C03380CFA03F338BF00201F
:1012E000994381400CFA00F022EA0000084370475D
:1012F0007047000010B5044640689446B0F5827F00
:101300000A461AD1A168B1F5004F02D0B1F5806F3D
:1013100004D121680B6823F040030B60B0F5827F95
:101320000BD1A068B0F5806F13D120460121634630
:1013300000F04AF838B9002010BD2046012163466C
:1013400000F042F860B1606D40F02000606503205D
:1013500010BD20468021634600F036F80028F2D107
:10136000002010BD10B582B040F20003C2F20003AD
:101370001B6849F68174C1F25E64A3FB043C044619
:101380004FEA5C504FF47A73584301906068B0F5AF
:10139000827F0DD113460A462046802100F014F8C2
:1013A00078B1606D40F020006065032002B010BD90
:1013B000019830B1019801380190206880680006DA
:1013C000F6D4002002B010BD2DE9F04381B01E46D6
:1013D00090460D468146FFF71BF9301A00EB0807CF
:1013E000FFF716F940F20001C2F200010968C1F3EB
:1013F000CB3179430091D9F8001089682940A9427E
:1014000019D1064608F1010406E000BFD9F8000032
:1014100080682840A8420ED1002CF7D0FFF7F8F8DA
:10142000801BB8420BD200980099002808BF0746DD
:10143000481E0090EAE7002001B0BDE8F083D9E93A
:1014400000014268B1F5827F22F0E00242600BD1D8
:10145000D9F80810B1F5004F02D0B1F5806F03D173
:10146000016821F040010160D9F82810B1F5005F52
:1014700007D1016821F400510160016841F4005175
:101480000160012089F85100002089F850000320F4
:1014900001B0BDE8F083000070470000B0B501382E
:1014A0000024B4EB106F1CBF0120B0BD4EF210053C
:1014B000CEF2000568604FF0FF300F2100F062F8B7
:1014C0000720AC6028602046B0BD000080B5FFF763
:1014D000A5F880BDB0B592B006AC20463021FEF72D
:1014E00041FF002543F640000595CDE90355CDE9C0
:1014F00001550095C4F202000168022241F08051BA
:101500000160006800F080500090009847F20000F1
:101510000095C4F20000016862F38F310160006839
:1015200000F44040009000980120099010200A909B
:10153000204606920C95FFF7D7F968B90F20CDE940
:10154000010501A80021CDE903550595FFF7E8F84D
:10155000002804BF12B0B0BDFEF76CFF4EF68850F5
:10156000CEF20000016841F4700101607047000094
:10157000FEE700004EF60C50CEF200000068C0F30B
:10158000022070474EF6145300F00F02CEF2000313
:1015900009011A4400F16043B0F1FF3FC8BF03F5F1
:1015A00064421170704700004EF60C51CEF20001FB
:1015B0000A684FF6FF031A4060F30A2242F0806087
:1015C00040F0FD70086070478CB040F6140A48F295
:1015D000A069C4F2020AC0F20109FFF72DF8FFF773
:1015E00079FFFFF717FEFFF74BFE9FED1F0B002063
:1015F0009FED1F1B8DF82F008DF82E0051EC100B66
:101600009FEDE90BCDE9091051EC110B9FEDE81BA3
:10161000CDE9071051EC100BCDE9051051EC110B81
:10162000CDE9031042F21E30C0F60000A0F1020B1B
:1016300042F21E7040F270059FEDDF9B9FEDE0AB24
:101640009FEDE1BA9FEDE1CA9FEDE1DA9FEDE1EA9E
:10165000C0F60000C2F200050DF12F04B2EE048ABC
:10166000861ECDE9016B18E09A9999999999A93F3D
:1016700000000000008EC24040F270050120C2F25E
:1016800000058DF82E0028460DF12E0101224FF0A5
:10169000FF33FFF709FC0DF12F04284621460122F4
:1016A0004FF0FF33FFF758FB9DF82F00471E052F23
:1016B000F3D800262846214601224FF0FF338DF84B
:1016C0002F60FFF749FB21469DF82F402846012255
:1016D0004FF0FF338DF82F60FFF73EFB00EE104A0E
:1016E000B8EE400A80EE080A9DF82F4010EE100A6E
:1016F00000F092FD0A9D099E2A46334600F09EF9AD
:10170000DDE9073200F09CFBDDF818B0DDF814804D
:101710005A46434600F03AFADDE9033200F08EF90A
:1017200000F05AF900EE104AB8EE400A80EE080ABE
:101730000FEE100A10EE100A00F06EFD2A46334636
:1017400000F07CF953EC192B00F07AFB5A46434623
:1017500000F01CFA53EC1A2B00F070F900F03CF981
:10176000042F00EE100A2CD8DFE807F0035478B0FD
:10177000D700B5EE40FADDF808B0F1EE10FA7FF7C9
:101780007BAF8BEE001ACCEE008AF0EE4DBABCEEC9
:10179000C10A10EE107A00BF4FF400745D4600BF1E
:1017A00035F8020FCAF800003846FEF749FE013C42
:1017B000F6D178EEABBAF4EE4FBAF1EE10FAEBDBFD
:1017C0005AE7B5EE40FAF1EE10FA7FF755AF8BEE1F
:1017D000001ACCEE008AF0EE4DBABCEEC10A10EE53
:1017E000107A00BF002400BF00EE104AB8EEC00A15
:1017F000BCEEC00A38468AED000AFEF721FE01342D
:10180000FF2CF1D178EEABBAF4EE4FBAF1EE10FA4C
:10181000E8DB31E7B5EE40FAF1EE10FA7FF72CAFD6
:101820008EEE001ACCEE008AF0EE4DBABCEEC10A84
:1018300010EE107AFF20CAF800003846FEF700FECE
:101840000020CAF800003846FEF7FAFD78EEABBA81
:10185000F4EE4FBAF1EE10FAECDB0DE7B5EE40FA1C
:10186000F1EE10FA7FF708AF8BEE001ACCEE008A8B
:10187000F0EE4DBABCEEC10A10EE107A002400BFA3
:1018800000EE104AB8EEC00ABCEEC00A38468AED37
:10189000000AFEF7D5FD01347F2CF1D1802400BF72
:1018A000013C00EE104AB8EEC00ABCEEC00A384651
:1018B0008AED000AFEF7C4FD012CF1DA78EEABBA2E
:1018C000F4EE4FBAF1EE10FAD8DBD5E6B5EE40FAF9
:1018D000019EF1EE10FA7FF7CFAE8BEE001ACCEE40
:1018E000008AF0EE4DBABCEEC10A10EE107A00BFCD
:1018F0004FF48074354600BF35F8020FCAF8000077
:101900003846FEF79DFD013CF6D178EEABBAF4EE19
:101910004FBAF1EE10FAEBDBAEE6B5EE40FAF1EEBF
:1019200010FA7FF7A9AE8BEE001ACCEE008AF0EE2B
:101930004DBABCEEC10A10EE108A00BF142400BFDD
:1019400000EE104AB8EEC00ABCEEC00A10EE100A53
:10195000494600BF0139CAF80000FBD14046FEF7F6
:101960006FFD6B2C04F11404EAD36B2400EE104AD3
:10197000B8EEC00ABCEEC00A10EE100A494600BF1D
:101980000139CAF80000FBD14046FEF759FD143C6E
:10199000ECDA78EEABBAF4EE4FBAF1EE10FACDDB3A
:1019A0006AE600BF00BF00BF000000000000144056
:1019B0000000000000407F400000000000388F4021
:1019C000000000000000F03F9A99794000007A443E
:1019D000000000000000FA4321F0004201F0004343
:1019E000A2F16052B2F5801F28BFD2F17F6C0BD9F3
:1019F0005FEA001C43EAC20242EB507018BF704716
:101A000028BF20F001007047B2F5801FBCBF184608
:101A100070474FEA410C1CF5001F02D2084600F047
:101A200079BC70B500F0B6FA00000089FFF7F6BF88
:101A30004FF00040A0F580007047000010B591EA1B
:101A4000030F48BF83F0004300F10083841A71EB59
:101A5000030C05D2121943EB0C03001B61EB0C01C4
:101A60004FEA1154A4EB135CDFF81CE11EEA430FAC
:101A700018BF9EEA445F00F0748021EA045123EA13
:101A80000E0343F48013DCF1200E32D322FA0CFE55
:101A900010EB0E0023FA0CFE41EB0E01CCF1200EF0
:101AA00003FA0EFE10EB0E00CCF1200E51F10001F6
:101AB000B1F5801F32D201EB045112FA0EF2BDE8EB
:101AC000104058BF7047401C38BF5FEA420218BF41
:101AD0007047002814BF20F0010041F100014FEAD7
:101AE000410313F5001F38BF7047A1F1C04100F05A
:101AF0009FBA012A43EB0302ACF1200CDCF11F0E6C
:101B000032BF4FF0000E23FA0CF310EB030041EB51
:101B10000451B4EB115FD0D0A1EB045101F5801159
:101B2000490801EB04515FEA30000ED350F1000088
:101B300038BF12FA0EFE08D1BDE81040C9E7401CBC
:101B400038BF5FEA4202CAD1C3E7BDE810404FEA9E
:101B5000410313F5001F38BF7047A1F1C04100F0E9
:101B600067BA9EEA445F08D011EA5E0FBDE81040F4
:101B700004BF01F0004100207047BDE8104070B57F
:101B800000F008FA64FBBE3E0000E0FF2DE9C04112
:101B900030B4DFF8A4C23CEA111418BF3CEA1314B5
:101BA00000F0ED801CEA111481EA030544EAD574C3
:101BB00018BF1CEA131500F0C880A4EB050404F15B
:101BC0007F7404F500344FF0004545EAC12145EA31
:101BD000C32341EA505143EA52534FEAC0204FEA2F
:101BE000C222994208BF904200F09D804FEA1365DF
:101BF0000FF24416765D4FEA134506FB05F7C7F171
:101C0000807706FB07F74FEAD737A7FB03687642D2
:101C1000A7FB06CEC8F5803838BFA8F1010807FB3E
:101C200008E6A6FB028C4FF0000EE6FB03CEDCF1CB
:101C3000000CCEF1004E38BFAEF1010EA6FB0C58E1
:101C40004FF00007E6FB0E87A1FB08C6A0FB07CEFE
:101C500016EB0E064FF0000545F10005E1FB0765A8
:101C600015F1E04E7EBFA4F580345FEA46066D4173
:101C700016F1800745F100054FEA172747EA056787
:101C80004FEA15254FEA0666A6F1DE46B6F1805FFB
:101C900020D9384605EBC47124F0010C01EB0C117E
:101CA000BCF1FE6F02D8F0BCBDE8008124425CBFED
:101CB00001F5801E9EEAC47F02D4F0BCBDE800811D
:101CC000244200F13980A1F1C041F0BCBDE80041DF
:101CD00000F0AEB94FEAD02040EA41504FEAD1219E
:101CE0004FEAD22242EA43524FEAD323A7FB0286AD
:101CF00007FB036605FB02661EEA0E0F58BFA6EB44
:101D00000056B6EB00564FEA520E4EEAC37E18EB71
:101D10000E0E56EB530EBCD518EB02085E417F1C2D
:101D200055F10005B5E74FF480154FF000074FF06F
:101D300000064FF00008ACE701F1C04101F000419E
:101D40004FF00000F0BCBDE800810CEA131511EA69
:101D50000C1F00D00CE013EA0C1F00F026804FF09F
:101D6000000081EA030101F00041F0BCBDE8008100
:101D7000F0BCBDE8004181EA030100F059B9F0BCB4
:101D8000BDE8004170B500F005F900BF097EFC3EDA
:101D900000F007B84FF0000081EA030101F00041B4
:101DA000704781EA030100F043B9F0BCBDE800418F
:101DB00022494FF000007047FFFDFBF9F7F5F4F200
:101DC000F0EEEDEBE9E8E6E4E3E1E0DEDDDBDAD8D6
:101DD000D7D5D4D3D1D0CFCDCCCBCAC8C7C6C5C434
:101DE000C2C1C0BFBEBDBCBBBAB9B8B7B6B5B4B34B
:101DF000B2B1B0AFAEADACABAAA9A8A8A7A6A5A436
:101E0000A3A3A2A1A09F9F9E9D9C9C9B9A999998F9
:101E10009797969595949393929191908F8F8E8E9C
:101E20008D8C8C8B8B8A8989888887878685858429
:101E300084838382828181800000FF070000F87F15
:101E400070B5DFF848C11CEA111E1EBF1CEA13154D
:101E50009EEA0C0F95EA0C0F00F06F8081EA0304F4
:101E60004EEAD47EAE4421EA4C1123EA4C1341F4ED
:101E7000801143F48013AEF17F7EA1FB024CA0FBE6
:101E80000365361955EB0C05A1FB034C4CF100031F
:101E9000A0FB021C16EB0C06654153F1000309423E
:101EA00018BF46F0010613F4007F0BD14FEA03314F
:101EB0004FEA053041EA155140EA165034036FF0FD
:101EC00003020AE04FEAC3214FEAC52041EA555117
:101ED00040EA5650F4026FF0020202EB2E4201EB90
:101EE000025585EACE710AD05FEA440C18BF24F08F
:101EF000004450F1000041F1000120EAD47040F2AA
:101F0000FE7C624500D270BDA84214BF4FF08044F1
:101F10004FF04044002E08BF0024BEF1806FA8BFE0
:101F2000A1F1C041BDE8704080F2828001F1C04162
:101F300001F000414FF0000070470CEA13159EEAD3
:101F40000C0F18BF95EA0C0F06D081EA030E4FF074
:101F500000000EF0004170BD00F01CF88900013E49
:101F600000F007B800F009B84FEA430C5FEA5C5C88
:101F700008D081EA030100F05BB84FEA410C5FEA48
:101F80005C5CF6D102494FF0000070470000FF078B
:101F90000000F87F0EF1020E2EF0030E5EF8046BC7
:101FA000364205D4012A43EB030515F5001F12D86C
:101FB000012841EB010C1CF5001F0CD80ED14FEA93
:101FC000D17C0CEB4C0C0CF1020C15F5001F08BF7A
:101FD0004CEBD37C04E04FF0080C01E04FEAD37CDB
:101FE0000CEB4C0526FA05F606F00706B6F1040CD4
:101FF00006D20EEB860CBDE870404CF0010C604739
:10200000DFE80CF0090B02024FF00041A1F50021BE
:102010004FF0000070BD19461046012851EB010435
:1020200018BFD4F5001484BF002001F0004170BD3A
:102030000808A0F500114FEA3101704710B591EA88
:10204000030F48BF83F000433FF500AD841A71EBE6
:10205000030C07D28CF0004C121943EB0C03001B4D
:1020600061EB0C014FEA1154A4EB135CDFF8A4E11F
:102070001EEA430F18BF9EEA445F00F0B48021EAD5
:10208000045123EA6E035242C3EB6E0338BF5B1E5A
:10209000DCF1200E25D322FA0CFE10EB0E0043FAE1
:1020A0000CFE41EB0E01CCF1200E03FA0EFE10EBFC
:1020B0000E00CCF1200E51F1000129D401EB0451A6
:1020C00012FA0EF2BDE8104058BF7047401C1CBF0A
:1020D000B2F1004F704700280CBF491C20F00100EE
:1020E000704712EB020E43EB030218BF4FF0010ED4
:1020F0004EEA4202ACF1200CDCF11E0E56D943FA36
:102100000CFE10EB0E00CCF11E0E51F1FF31D5D5B7
:102110000EF1010E12FA0EFE404141EB010101EBFE
:10212000445C5FEA5C5C10D901EB045110EBDE709B
:1021300038BFBEF1004FBDE8104018BF70470028FF
:102140000CBF491C20F00100704734D24FEAD42C58
:1021500024F4006411F500111BD0B1FA81F20B3A9E
:10216000A41AA41ED2F12003914030FA03F31943BC
:10217000904001EBCC7101EB0451002CBDE8104004
:10218000A8BF704701F1C04101F000414FF00000CD
:102190007047B0FA80F310FA03F102D1BDE81040A5
:1021A0007047E41A173C4805C90AE2E701EB0451FD
:1021B000BDE81040704749104FEA300001EB045170
:1021C000BDE8104002E04FF0000170474A0008BF30
:1021D0000042F8D0B2F5001F28BF704701F000415F
:1021E0004FF0000070479EEA445F07D011EA5E0F8F
:1021F000BDE8104004BF002100207047BDE810403A
:1022000070B5FFF7C7FE00BF40DFF63E104683F013
:10221000004170470000E0FF43004FEAD30C4FEA53
:102220003C0C43401FBF40070CF1605113F0FE4FC0
:1022300070471CF0006F03D10CF000410020704784
:102240000CF0004343EA507040EACC0010B500F0B7
:102250000EF800BF000000924FEA0001FFF7E8BE51
:102260004FF00041A1F500214FF0000070470EF142
:10227000020E2EF0030E5EF8044B244204D44FEA03
:102280004102B2F17F4F11D84FEA4003B3F17F4FC3
:102290000CD80ED14FEAD07C0CEB4C0C0CF1020C9C
:1022A000B2F17F4F08BF4CEBD17C04E04FF0080C3B
:1022B00001E04FEAD17C0CEB4C0324FA03F404F068
:1022C0000704B4F1040C06D20EEB840CBDE81040F8
:1022D0004CF0010C6047DFE80CF0070802024FF0F9
:1022E0000040A0F5800010BD0846420018BFD2F1A2
:1022F000807288BF00F0004010BDF1EE100A4FF66A
:10230000FF71C0F2C03120EA010040F04070E1EE00
:10231000100A7047FF2141EAD050C0057047800085
:102320008100830084008600870089008A008C0079
:102330008E008F0091009200940095009700980005
:102340009A009B009D009F00A000A200A300A50092
:10235000A600A800A900AB00AC00AD00AF00B00023
:10236000B200B300B500B600B800B900BA00BC00B6
:10237000BD00BE00C000C100C300C400C500C6004F
:10238000C800C900CA00CC00CD00CE00CF00D100EB
:10239000D200D300D400D500D600D800D900DA008E
:1023A000DB00DC00DD00DE00DF00E000E100E20039
:1023B000E300E400E500E600E700E800E900EA00E9
:1023C000EB00EB00EC00ED00EE00EF00EF00F000A2
:1023D000F100F200F200F300F400F400F500F50063
:1023E000F600F700F700F800F800F900F900FA002D
:1023F000FA00FA00FB00FB00FC00FC00FC00FD0002
:10240000FD00FD00FD00FE00FE00FE00FE00FE00DF
:10241000FF00FF00FF00FF00FF00FF00FF00FF00C4
:10242000FF00FF00FF00FF00FF00FF00FE00FE00B6
:10243000FE00FE00FE00FE00FD00FD00FD00FC00B1
:10244000FC00FC00FB00FB00FB00FA00FA00F900B6
:10245000F900F800F800F700F700F600F600F500C4
:10246000F400F400F300F300F200F100F000F000DB
:10247000EF00EE00ED00ED00EC00EB00EA00E900FB
:10248000E800E700E700E600E500E400E300E20022
:10249000E100E000DF00DE00DD00DB00DA00D90053
:1024A000D800D700D600D500D400D200D100D0008B
:1024B000CF00CD00CC00CB00CA00C800C700C600CA
:1024C000C400C300C200C000BF00BE00BC00BB000F
:1024D000BA00B800B700B500B400B300B100B00056
:1024E000AE00AD00AB00AA00A800A700A500A400A4
:1024F000A200A1009F009E009C009B0099009800F4
:10250000960095009300910090008E008D008B0046
:102510008A008800870085008300820080007F0099
:102520007D007C007A0078007700750074007200EE
:1025300071006F006E006C006A0069006700660041
:1025400064006300610060005E005D005B005A0093
:102550005800570055005400520051004F004E00E3
:102560004C004B004A00480047004500440043002F
:10257000410040003F003D003C003B003900380076
:102580003700350034003300320030002F002E00B9
:102590002D002B002A0029002800270026002500F6
:1025A00024002200210020001F001E001D001C002E
:1025B0001B001A001900180018001700160015005B
:1025C0001400130012001200110010000F000F0081
:1025D0000E000D000C000C000B000B000A0009009F
:1025E00009000800080007000700060006000500B3
:1025F00005000400040004000300030003000200BF
:1026000002000200010001000100010001000100C0
:1026100000000000000000000000000000000000BA
:1026200000000000000000000000000001000100A8
:10263000010001000100020002000200020003008C
:102640000300030004000400050005000500060067
:102650000600070007000800080009000A000A0039
:102660000B000B000C000D000D000E000F00100001
:1026700010001100120013001400140015001600C1
:102680001700180019001A001B001C001D001E0076
:102690001F00200021002200230024002500260026
:1026A000270029002A002B002C002D002E003000CE
:1026B00031003200330035003600370039003A006F
:1026C0003B003C003E003F0041004200430045000B
:1026D0004600470049004A004C004D004F005000A2
:1026E0005200530054005600570059005A005C0035
:1026F0005D005F00600062006400650067006800C4
:102700006A006B006D006E00700071007300750050
:102710007600780079007B007C007E007F008000DE
:102720008100830084008600870089008A008C0075
:102730008E008F0091009200940095009700980001
:102740009A009B009D009F00A000A200A300A5008E
:10275000A600A800A900AB00AC00AD00AF00B0001F
:10276000B200B300B500B600B800B900BA00BC00B2
:10277000BD00BE00C000C100C300C400C500C6004B
:10278000C800C900CA00CC00CD00CE00CF00D100E7
:10279000D200D300D400D500D600D800D900DA008A
:1027A000DB00DC00DD00DE00DF00E000E100E20035
:1027B000E300E400E500E600E700E800E900EA00E5
:1027C000EB00EB00EC00ED00EE00EF00EF00F0009E
:1027D000F100F200F200F300F400F400F500F5005F
:1027E000F600F700F700F800F800F900F900FA0029
:1027F000FA00FA00FB00FB00FC00FC00FC00FD00FE
:10280000FD00FD00FD00FE00FE00FE00FE00FE00DB
:10281000FF00FF00FF00FF00FF00FF00FF00FF00C0
:10282000FF00FF00FF00FF00FF00FF00FE00FE00B2
:10283000FE00FE00FE00FE00FD00FD00FD00FC00AD
:10284000FC00FC00FB00FB00FB00FA00FA00F900B2
:10285000F900F800F800F700F700F600F600F500C0
:10286000F400F400F300F300F200F100F000F000D7
:10287000EF00EE00ED00ED00EC00EB00EA00E900F7
:10288000E800E700E700E600E500E400E300E2001E
:10289000E100E000DF00DE00DD00DB00DA00D9004F
:1028A000D800D700D600D500D400D200D100D00087
:1028B000CF00CD00CC00CB00CA00C800C700C600C6
:1028C000C400C300C200C000BF00BE00BC00BB000B
:1028D000BA00B800B700B500B400B300B100B00052
:1028E000AE00AD00AB00AA00A800A700A500A400A0
:1028F000A200A1009F009E009C009B0099009800F0
:10290000960095009300910090008E008D008B0042
:102910008A008800870085008300820080007F0095
:102920007D007C007A0078007700750074007200EA
:1029300071006F006E006C006A006900670066003D
:1029400064006300610060005E005D005B005A008F
:102950005800570055005400520051004F004E00DF
:102960004C004B004A00480047004500440043002B
:10297000410040003F003D003C003B003900380072
:102980003700350034003300320030002F002E00B5
:102990002D002B002A0029002800270026002500F2
:1029A00024002200210020001F001E001D001C002A
:1029B0001B001A0019001800180017001600150057
:1029C0001400130012001200110010000F000F007D
:1029D0000E000D000C000C000B000B000A0009009B
:1029E00009000800080007000700060006000500AF
:1029F00005000400040004000300030003000200BB
:102A000002000200010001000100010001000100BC
:102A100000000000000000000000000000000000B6
:102A200000000000000000000000000001000100A4
:102A30000100010001000200020002000200030088
:102A40000300030004000400050005000500060063
:102A50000600070007000800080009000A000A0035
:102A60000B000B000C000D000D000E000F001000FD
:102A700010001100120013001400140015001600BD
:102A80001700180019001A001B001C001D001E0072
:102A90001F00200021002200230024002500260022
:102AA000270029002A002B002C002D002E003000CA
:102AB00031003200330035003600370039003A006B
:102AC0003B003C003E003F00410042004300450007
:102AD0004600470049004A004C004D004F0050009E
:102AE0005200530054005600570059005A005C0031
:102AF0005D005F00600062006400650067006800C0
:102B00006A006B006D006E0070007100730075004C
:102B10007600780079007B007C007E007F0000005A
:102B2000000000000000010203040607080900007D
:102B3000502B00080000002010000000D001000809
:102B4000602B000810000020C0060000EC01000807
:102B50000024F4000100000010000000000000004C
:040000050800019559
:00000001FF
